{
  "contractName": "dBank",
  "abi": [
    {
      "inputs": [
        {
          "internalType": "contract Token",
          "name": "_token",
          "type": "address"
        }
      ],
      "stateMutability": "nonpayable",
      "type": "constructor"
    },
    {
      "anonymous": false,
      "inputs": [
        {
          "indexed": true,
          "internalType": "address",
          "name": "user",
          "type": "address"
        },
        {
          "indexed": false,
          "internalType": "uint256",
          "name": "etherAmount",
          "type": "uint256"
        },
        {
          "indexed": false,
          "internalType": "uint256",
          "name": "timeStart",
          "type": "uint256"
        }
      ],
      "name": "Deposit",
      "type": "event"
    },
    {
      "anonymous": false,
      "inputs": [
        {
          "indexed": true,
          "internalType": "address",
          "name": "user",
          "type": "address"
        },
        {
          "indexed": false,
          "internalType": "uint256",
          "name": "etherAmount",
          "type": "uint256"
        },
        {
          "indexed": false,
          "internalType": "uint256",
          "name": "depositTime",
          "type": "uint256"
        },
        {
          "indexed": false,
          "internalType": "uint256",
          "name": "interest",
          "type": "uint256"
        }
      ],
      "name": "Withdraw",
      "type": "event"
    },
    {
      "inputs": [
        {
          "internalType": "address",
          "name": "",
          "type": "address"
        }
      ],
      "name": "depositStart",
      "outputs": [
        {
          "internalType": "uint256",
          "name": "",
          "type": "uint256"
        }
      ],
      "stateMutability": "view",
      "type": "function"
    },
    {
      "inputs": [
        {
          "internalType": "address",
          "name": "",
          "type": "address"
        }
      ],
      "name": "etherBalanceOf",
      "outputs": [
        {
          "internalType": "uint256",
          "name": "",
          "type": "uint256"
        }
      ],
      "stateMutability": "view",
      "type": "function"
    },
    {
      "inputs": [
        {
          "internalType": "address",
          "name": "",
          "type": "address"
        }
      ],
      "name": "isDeposited",
      "outputs": [
        {
          "internalType": "bool",
          "name": "",
          "type": "bool"
        }
      ],
      "stateMutability": "view",
      "type": "function"
    },
    {
      "inputs": [],
      "name": "deposit",
      "outputs": [],
      "stateMutability": "payable",
      "type": "function"
    },
    {
      "inputs": [],
      "name": "withdraw",
      "outputs": [],
      "stateMutability": "nonpayable",
      "type": "function"
    },
    {
      "inputs": [],
      "name": "borrow",
      "outputs": [],
      "stateMutability": "payable",
      "type": "function"
    },
    {
      "inputs": [],
      "name": "payOff",
      "outputs": [],
      "stateMutability": "nonpayable",
      "type": "function"
    }
  ],
  "bytecode": "0x608060405234801561001057600080fd5b506040516109ef3803806109ef8339818101604052602081101561003357600080fd5b8101908080519060200190929190505050806000806101000a81548173ffffffffffffffffffffffffffffffffffffffff021916908373ffffffffffffffffffffffffffffffffffffffff1602179055505061095b806100946000396000f3fe6080604052600436106100705760003560e01c8063737320241161004e5780637373202414610108578063d0e30db01461016f578063e68d356914610179578063ff87930a1461018357610070565b8063179fc99f146100755780633ccfd60b146100da5780633fac68d5146100f1575b600080fd5b34801561008157600080fd5b506100c46004803603602081101561009857600080fd5b81019080803573ffffffffffffffffffffffffffffffffffffffff1690602001909291905050506101e8565b6040518082815260200191505060405180910390f35b3480156100e657600080fd5b506100ef610200565b005b3480156100fd57600080fd5b506101066105e7565b005b34801561011457600080fd5b506101576004803603602081101561012b57600080fd5b81019080803573ffffffffffffffffffffffffffffffffffffffff1690602001909291905050506105e9565b60405180821515815260200191505060405180910390f35b610177610609565b005b6101816108e9565b005b34801561018f57600080fd5b506101d2600480360360208110156101a657600080fd5b81019080803573ffffffffffffffffffffffffffffffffffffffff1690602001909291905050506108eb565b6040518082815260200191505060405180910390f35b60016020528060005260406000206000915090505481565b60011515600360003373ffffffffffffffffffffffffffffffffffffffff1673ffffffffffffffffffffffffffffffffffffffff16815260200190815260200160002060009054906101000a900460ff161515146102c6576040517f08c379a000000000000000000000000000000000000000000000000000000000815260040180806020018281038252601a8152602001807f4572726f722c206e6f2070726576696f7573206465706f73697400000000000081525060200191505060405180910390fd5b6000600160003373ffffffffffffffffffffffffffffffffffffffff1673ffffffffffffffffffffffffffffffffffffffff1681526020019081526020016000205490506000600260003373ffffffffffffffffffffffffffffffffffffffff1673ffffffffffffffffffffffffffffffffffffffff16815260200190815260200160002054420390506000662386f26fc10000600160003373ffffffffffffffffffffffffffffffffffffffff1673ffffffffffffffffffffffffffffffffffffffff16815260200190815260200160002054816103a157fe5b046301e33731029050600082820290503373ffffffffffffffffffffffffffffffffffffffff166108fc859081150290604051600060405180830381858888f193505050501580156103f7573d6000803e3d6000fd5b5060008054906101000a900473ffffffffffffffffffffffffffffffffffffffff1673ffffffffffffffffffffffffffffffffffffffff166340c10f1933836040518363ffffffff1660e01b8152600401808373ffffffffffffffffffffffffffffffffffffffff16815260200182815260200192505050600060405180830381600087803b15801561048957600080fd5b505af115801561049d573d6000803e3d6000fd5b505050506000600260003373ffffffffffffffffffffffffffffffffffffffff1673ffffffffffffffffffffffffffffffffffffffff168152602001908152602001600020819055506000600160003373ffffffffffffffffffffffffffffffffffffffff1673ffffffffffffffffffffffffffffffffffffffff168152602001908152602001600020819055506000600360003373ffffffffffffffffffffffffffffffffffffffff1673ffffffffffffffffffffffffffffffffffffffff16815260200190815260200160002060006101000a81548160ff0219169083151502179055503373ffffffffffffffffffffffffffffffffffffffff167f02f25270a4d87bea75db541cdfe559334a275b4a233520ed6c0a2429667cca9485858460405180848152602001838152602001828152602001935050505060405180910390a250505050565b565b60036020528060005260406000206000915054906101000a900460ff1681565b60001515600360003373ffffffffffffffffffffffffffffffffffffffff1673ffffffffffffffffffffffffffffffffffffffff16815260200190815260200160002060009054906101000a900460ff161515146106cf576040517f08c379a000000000000000000000000000000000000000000000000000000000815260040180806020018281038252601d8152602001807f4572726f722c206465706f73697420616c72656164792061637469766500000081525060200191505060405180910390fd5b662386f26fc1000034101561072f576040517f08c379a00000000000000000000000000000000000000000000000000000000081526004018080602001828103825260228152602001806109046022913960400191505060405180910390fd5b34600160003373ffffffffffffffffffffffffffffffffffffffff1673ffffffffffffffffffffffffffffffffffffffff1681526020019081526020016000205401600160003373ffffffffffffffffffffffffffffffffffffffff1673ffffffffffffffffffffffffffffffffffffffff1681526020019081526020016000208190555042600260003373ffffffffffffffffffffffffffffffffffffffff1673ffffffffffffffffffffffffffffffffffffffff1681526020019081526020016000205401600260003373ffffffffffffffffffffffffffffffffffffffff1673ffffffffffffffffffffffffffffffffffffffff168152602001908152602001600020819055506001600360003373ffffffffffffffffffffffffffffffffffffffff1673ffffffffffffffffffffffffffffffffffffffff16815260200190815260200160002060006101000a81548160ff0219169083151502179055503373ffffffffffffffffffffffffffffffffffffffff167f90890809c654f11d6e72a28fa60149770a0d11ec6c92319d6ceb2bb0a4ea1a153442604051808381526020018281526020019250505060405180910390a2565b565b6002602052806000526040600020600091509050548156fe4572726f722c206465706f736974206d757374206265203e3d20302e303120455448a2646970667358221220a21b3f9d510233006a3660fced584712e949b55ae7f479c1552b7f57b9f5e8ac64736f6c63430007060033",
  "immutableReferences": {},
  "source": "// SPDX-License-Identifier: MIT\npragma solidity >=0.6.0 <0.8.0;\n\nimport \"./Token.sol\";\n\ncontract dBank {\n\n  //assign Token contract to variable\n  Token private token;\n  //add mappings\n  mapping(address => uint) public etherBalanceOf;\n  mapping(address => uint) public depositStart;\n  mapping(address => bool) public isDeposited;\n  //add events\n  event Deposit(address indexed user, uint etherAmount, uint timeStart);\n  event Withdraw(address indexed user, uint etherAmount, uint depositTime, uint interest);\n  //pass as constructor argument deployed Token contract\n  constructor(Token _token) public {\n    token = _token;\n    //assign token deployed contract to variable\n  }\n\n  function deposit() payable public {\n    require(isDeposited[msg.sender] == false, 'Error, deposit already active');\n    require(msg.value>=1e16, 'Error, deposit must be >= 0.01 ETH');\n\n    etherBalanceOf[msg.sender] = etherBalanceOf[msg.sender] + msg.value;\n    depositStart[msg.sender] = depositStart[msg.sender] + block.timestamp;\n\n    isDeposited[msg.sender] = true; //activate deposit status\n    emit Deposit(msg.sender, msg.value, block.timestamp);\n  }\n\n  function withdraw() public {\n    require(isDeposited[msg.sender]==true, 'Error, no previous deposit');\n    uint userBalance = etherBalanceOf[msg.sender]; //for event\n    //check if msg.sender deposit status is true\n    //assign msg.sender ether deposit balance to variable for event\n\n    //check user's hodl time\n    uint depositTime = block.timestamp - depositStart[msg.sender];\n\n    //calc interest per second\n    //calc accrued interest\n    //31668017 - interest(10% APY) per second for min. deposit amount (0.01 ETH), cuz:\n    //1e15(10% of 0.01 ETH) / 31577600 (seconds in 365.25 days)\n\n    //(etherBalanceOf[msg.sender] / 1e16) - calc. how much higher interest will be (based on deposit), e.g.:\n    //for min. deposit (0.01 ETH), (etherBalanceOf[msg.sender] / 1e16) = 1 (the same, 31668017/s)\n    //for deposit 0.02 ETH, (etherBalanceOf[msg.sender] / 1e16) = 2 (doubled, (2*31668017)/s)\n    uint interestPerSecond = 31668017 * (etherBalanceOf[msg.sender] / 1e16);\n    uint interest = interestPerSecond * depositTime;\n\n    //send eth to user\n    msg.sender.transfer(userBalance);\n    token.mint(msg.sender, interest); //send interest in tokens to user\n\n    //reset depositer data\n    depositStart[msg.sender] = 0;\n    etherBalanceOf[msg.sender] = 0;\n    isDeposited[msg.sender] = false;\n    //emit event\n    emit Withdraw(msg.sender, userBalance, depositTime, interest);\n  }\n\n  function borrow() payable public {\n    //check if collateral is >= than 0.01 ETH\n    //check if user doesn't have active loan\n\n    //add msg.value to ether collateral\n\n    //calc tokens amount to mint, 50% of msg.value\n\n    //mint&send tokens to user\n\n    //activate borrower's loan status\n\n    //emit event\n  }\n\n  function payOff() public {\n    //check if loan is active\n    //transfer tokens from user back to the contract\n\n    //calc fee\n\n    //send user's collateral minus fee\n\n    //reset borrower's data\n\n    //emit event\n  }\n}\n",
  "sourcePath": "/Users/willmcdonnell/sei/projects/defi-bank/src/contracts/defiBank.sol",
  "compiler": {
    "name": "solc",
    "version": "0.7.6+commit.7338295f.Emscripten.clang"
  },
  "schemaVersion": "3.4.1",
  "updatedAt": "2021-06-25T23:10:00.056Z",
  "devdoc": {
    "kind": "dev",
    "methods": {},
    "version": 1
  },
  "userdoc": {
    "kind": "user",
    "methods": {},
    "version": 1
  }
}